:020000040800F2
:10000000E8140020CD0100086B110008F90F00086A
:10001000691100085D020008F114000800000000EA
:100020000000000000000000000000003501000892
:100030005F02000800000000790100087D1100083F
:10004000E7010008E7010008E7010008E7010008F0
:10005000E7010008E7010008E7010008E7010008E0
:10006000E7010008E7010008E7010008E7010008D0
:10007000E7010008E7010008E7010008E7010008C0
:10008000E7010008E7010008E701000800000000A0
:10009000000000000000000000000000E701000870
:1000A000E7010008E7010008E7010008E701000890
:1000B0003D120008E7010008E7010008E701000819
:1000C000E7010008E7010008E7010008E701000870
:1000D000E7010008E7010008E7010008E701000860
:1000E000E7010008E7010008E70100080000000040
:1000F0000000000000000000000000000000000000
:1001000000000000000000000000000000000000EF
:100110000000000000000000E7010008E7010008FF
:10012000DFF80CD000F088F80048004731150008CF
:10013000E8140020224B19680868B0E8F00F80F33B
:100140000988BFF36F8F4FF0000080F311884EF0E5
:100150000D0E70470000000006480068006880F33C
:10016000088862B661B6BFF34F8FBFF36F8F00DFB1
:1001700000BF00BF08ED00E0EFF30980BFF36F8F11
:100180000F4B1A6820E9F00F106008B54FF05000CF
:1001900080F31188BFF34F8FBFF36F8F01F0A2FD83
:1001A0004FF0000080F31188BDE808401968086826
:1001B000B0E8F00F80F30988BFF36F8F704700BF7E
:1001C00018000020EFF305807047000006488047C4
:1001D00006480047FEE7FEE7FEE7FEE7FEE7FEE72C
:1001E000FEE7FEE7FEE7FEE7F11100082101000847
:1001F00040EA01039B0703D009E008C9121F08C0A9
:10020000042AFAD203E011F8013B00F8013B521E28
:10021000F9D27047D2B201E000F8012B491EFBD29F
:1002200070470022F6E710B513460A460446194601
:10023000FFF7F0FF204610BD064C074D06E0E068D2
:1002400040F0010394E8070098471034AC42F6D31D
:10025000FFF76AFF9C200008BC200008FEE77047FB
:1002600070B54379012B20D001254571022303711C
:100270000668346802F0100340F6FE729A40944318
:10028000D1E900210A439A4022433260026814688F
:10029000C02199408C431460026813688B4313603B
:1002A000057100214171084670BD022070BD70B516
:1002B000040003D02079002510B105E0012070BDB5
:1002C0006571204600F008F80220207125610120A8
:1002D0002071002070BD000000B585B000210091A4
:1002E00001910291039100680E49884218D10E488D
:1002F000C16941F00051C161C16901F0005104912F
:10030000816941F0040181618069694600F004005F
:1003100004903020009003200190044800F008F879
:1003200005B000BD0074004000100240000801400C
:100330002DE9F84FDFF8B891002409F1040A0AF119
:10034000040B23460F270BF1040EC9E00125A5403D
:100350002A40AA427DD1674ED1F804C0ACEB060812
:10036000B44532D014DCBCF1030F3AD009DCBCF147
:10037000000F2AD0BCF1010F1CD0BCF1020F31D10B
:100380001DE0BCF1110F17D0BCF1120F2AD119E0FA
:10039000B8F5881F19D006DCB8F5803F15D0B8F540
:1003A000801F1FD111E0B8F5001F0ED0B8F5041F53
:1003B00018D10AE0CB6815E0CB681B1D12E0CB68B2
:1003C00008330FE0CB680C330CE08B682BB1012BAA
:1003D0004FF0080303D0456104E0042302E0056107
:1003E00000E00023FF2A01D8064601E000F10406E0
:1003F0004FEA840501D9A5F12005D6F8008007FA57
:1004000005FC28EA0C0803FA05F548EA0508C6F8D1
:1004100000804D68ED0062D5374DAE6946F00106AB
:10042000AE61AD6924F0030605F001050095334D7A
:1004300006EB050CDCF80850A607360F07FA06F89D
:1004400025EA0805DFF8B880404503D14FF00008E1
:1004500017E044E0DFF8AC80404502D14FF00108DE
:100460000FE0DFF8A480404502D14FF0020808E019
:10047000DFF89880404502D14FF0030801E04FF0CB
:10048000040808FA06F848EA0508CCF808804D6820
:10049000D9F80060ED034D4601D5164300E09643C0
:1004A0002E604D68DAF80060AD03554601D516435D
:1004B00000E096432E604D68DBF80060ED025D467B
:1004C00001D5164300E096432E604D68DEF80060CB
:1004D000AD02754601D5164300E096432E60641CBC
:1004E0000D682A46E5407FF431AFBDE8F88F000083
:1004F0000004014000001110001002400000014003
:1005000000080140000C01400010014000140140AF
:100510000AB1016170470904FBE7000001488068E7
:1005200070470000080000200248816802781144EA
:10053000816070470800002010B5032000F08CF89F
:10054000002000F005F800F03BF8002010BD00008E
:1005500000B5014687B000221C2000F05DF81C2089
:1005600000F04CF81348C16941F00101C161C06954
:1005700005A900F001000690684600F0F3F800F0CD
:100580000BF90D494FF08042B0FBF1F10B48491EC9
:100590000260416040F2E7320021C0E9032181603E
:1005A00000F07FFB10B1012007B000BD034800F050
:1005B000BFFBF9E70010024040420F00B8030020E3
:1005C0000C4808B5816941F001018161816901F040
:1005D00001010091C16941F08051C161C06900F021
:1005E000805000900448416821F0E06141F00071C2
:1005F000416008BD0010024000000140002809DBF6
:1006000000F01F02012191404009800000F1E0202C
:10061000C0F8001170470000F0B40E4B1B680C4688
:10062000C3F30223C3F10705042D00D90425191DC6
:10063000072901D2002300E0DB1E012606FA05F19E
:10064000491E214099409E40761E16403143F0BC21
:1006500000F04FBF0CED00E0064900F0070208680B
:100660004FF6FF03184040EA0220034A1043086097
:10067000704700000CED00E00000FA052DE9F041A4
:10068000050027D02868334C810712D5400703D5D1
:10069000606840F4E06060602878000703D5606817
:1006A00040F4605060606068A96820F0F000084382
:1006B00060602878C00729D06868012804D02168C4
:1006C000022804D0890703E02168890300E089013A
:1006D000002902DB0120BDE8F081616821F00301FF
:1006E00001436160FFF71AFF064641F2883706E0D2
:1006F000FFF714FF801BB84201D90320EBE76068C5
:10070000696800F00C00B0EB810FF1D12878400748
:1007100005D56068E96820F4E060084360602878E7
:10072000000706D56068296920F4605040EAC100DE
:10073000606000F051F86168074AC1F30311515C31
:10074000C8400649086006480068FFF701FF00201E
:10075000C1E70000001002406820000814000020DB
:100760000C0000200F2202600A4A536803F00303C2
:100770004360536803F0F0038360536803F4E0635D
:10078000C36052684FF4E06303EAD20202610020C2
:100790000860704700100240044805490068496835
:1007A000044AC1F30221515CC84070471400002084
:1007B0000010024078200008044805490068496894
:1007C000044AC1F3C221515CC840704714000020A4
:1007D000001002407820000813A188B00FC98DE8EE
:1007E0000F0015A10DF1100C0FC98CE80F00164A6F
:1007F0005168164801F00C03042B10D0082B0ED1C1
:10080000C1F38343C9031DF803000AD5D16A04AAC2
:1008100001F00F01515C0D4A5043B0FBF1F008B0FC
:1008200070470B494843FAE7020304050607080925
:100830000A0B0C0D0E0F1010010203040506070829
:10084000090A0B0C0D0E0F100010024000127A0066
:1008500000093D002DE9F84F040070D02078C04D0C
:10086000C00749D06868C0F38100012807D06868D4
:10087000C0F38100022809D16868C00306D5286842
:10088000800339D560680028E7D035E06068B0F5AE
:10089000803F0BD010B1B0F5A02F11D0286820F404
:1008A00080302860286820F4802002E0286840F426
:1008B00080302860606890B1FFF730FE06460AE09D
:1008C000286840F480202860F0E700BFFFF726FE8C
:1008D000801B642873D828688003F7D50CE0FFF7E5
:1008E0001DFE064605E000BFFFF718FE801B6428CA
:1008F000F0D828688003F7D420789A4E80074FF00C
:1009000001094FF0000839D5686810F00C0F07D0C6
:100910006868C0F38100022809D16868C00306D462
:100920002868800714D52069012808D110E02069C3
:10093000B0B1C6F80090FFF7F1FD074605E00AE107
:10094000FFF7ECFDC01B0228C4D828688007F7D544
:100950002868616920F0F80040EAC10028600DE0D5
:10096000C6F80080FFF7DAFD074604E0FFF7D6FD82
:10097000C01B022823D828688007F7D420780007F6
:100980002CD57948A169D9B1C0F80090FFF7C6FD10
:10099000074604E0FFF7C2FDC01B02280FD8686AB3
:1009A0008007F7D571484FF4FA510068B0FBF1F0B9
:1009B000009000BF0098411E0091FAD20EE080E046
:1009C000C0F80080FFF7AAFD074604E0FFF7A6FD88
:1009D000C01B022875D8686A8007F7D420784007C2
:1009E00060D5E8690027C00008D4E86940F080506D
:1009F000E861E869012700F0805000905C480168D8
:100A0000C90513D40168834641F480710160FFF782
:100A100085FD824606E000BFFFF780FDA0EB0A00DF
:100A200064284ED8DBF80000C005F5D5E068012841
:100A30000AD008B1052813D0286A20F001002862E6
:100A4000286A20F0040002E0286A40F001002862D1
:100A5000E06841F2883B98B1FFF760FD82460BE009
:100A6000286A40F004002862EEE700BFFFF756FD59
:100A7000A0EB0A0159455AD8286A8007F6D50CE040
:100A8000FFF74CFD824605E0FFF748FDA0EB0A01A9
:100A900059454CD8286A8007F6D41FB1E86920F080
:100AA0008050E861E06988B36968C1F38101022977
:100AB00044D00228C6F8608004D0FFF72FFD04461A
:100AC00038E034E0FFF72AFD074604E0FFF726FD93
:100AD000C01B02282BD828688001F7D4206AB0F503
:100AE000803F05D1E86AA16820F00F000843E86262
:100AF000D4E908010843696821F474110843686067
:100B0000C6F86090FFF70AFD044606E025E000BF46
:100B1000FFF704FD001B022809D828688001F7D5DB
:100B20001BE000BFFFF7FAFC001B022802D90320DC
:100B3000BDE8F88F28688001F4D40EE00128F7D0D2
:100B40006868226A00F48031914204D1616A00F43D
:100B50007010884201D00120EAE70020E8E7000099
:100B60000010024000004242800442421400002073
:100B70000070004070B5040005D00025A56294F80F
:100B8000510010B106E0012070BD84F8505020469D
:100B900000F02AF8022084F851002068016821F052
:100BA00040010160D4E901010843D4E90312114373
:100BB000084361690843218B01F400710843E1692E
:100BC0000843216A0843A16A084321680860A069B4
:100BD000042101EA1040216848606565012084F81D
:100BE0005100002070BD000030B585B00024009495
:100BF00001940294039400681549884225D1154850
:100C0000C16941F48041C161C16901F4804104912D
:100C1000816941F00801816180690F4D00F0080091
:100C200004904FF420400090022001900320039094
:100C300069462846FFF77CFB4FF48040CDE900046D
:100C4000694628460294FFF773FB05B030BD0000EB
:100C50000038004000100240000C0140704770470F
:100C600070B590F83C20012A19D0012400F83C4FBF
:100C70000222427050F83C3C5A689D6822F070068F
:100C80000A684968324325F0800529435A6050F8C4
:100C90003C2C9160447000210170084670BD022018
:100CA00070BD10B5040003D094F83D0010B107E00A
:100CB000012010BD002084F83C00204600F00CF814
:100CC000022084F83D00211D206800F0BDFA0120BB
:100CD00084F83D00002010BD00B585B000210091D2
:100CE00001910291039100680E49884217D10E4884
:100CF000816941F400618161816901F400610491BD
:100D0000816941F0040181618069694600F0040055
:100D100004904FF4807000900448FFF709FB05B081
:100D200000BD0000002C01400010024000080140FE
:100D30000168CA6842F00102CA600068816801F077
:100D40000701062903D0016841F00101016000207C
:100D50007047704770B50446006801694FF00005A0
:100D6000C943890715D4C168C943890711D4E91E4D
:100D7000016101202077206880698007204602D029
:100D8000FFF7E7FF04E000F098F8204600F096F83F
:100D9000257720680169C943490717D4C168C94349
:100DA000490713D46FF00401016102202077206805
:100DB000806910F4407F204602D0FFF7CAFF04E0AC
:100DC00000F07BF8204600F079F82577206801696B
:100DD000C943090716D4C168C943090712D46FF083
:100DE00008010161042020772068C069800720463F
:100DF00002D0FFF7AEFF04E000F05FF8204600F0FD
:100E00005DF8257720680169C943C90617D4C16810
:100E1000C943C90613D46FF010010161082020777F
:100E20002068C06910F4407F204602D0FFF791FF90
:100E300004E000F042F8204600F040F825772068F2
:100E40000169C943C90708D1C168C943C90704D1A9
:100E5000891E0161204600F032F820680169C9430B
:100E6000090609D4C168C943090605D46FF0800199
:100E700001612046FFF7F2FE20680169C943490677
:100E800009D4C168C943490605D46FF04001016126
:100E9000204600F046F820680169C94389060BD452
:100EA000C168C943890607D46FF02001016120465B
:100EB000BDE87040FFF7D3BE70BD70477047006853
:100EC000B0F1804F01D1FFF72FBB704770B50446DA
:100ED00090F83C00012812D0012584F83C500220F3
:100EE00084F83D00204600F005FA01004FF00000B4
:100EF00007D084F83D5084F83C00012070BD0220EA
:100F000070BD2168CA6822F04002CA602168CA68C0
:100F100022F48042CA6084F83D5084F83C000020EE
:100F200070BD704770B5040004D094F839000025F6
:100F300010B106E0012070BD84F83850204600F062
:100F400023F8242084F839002068C16821F4005176
:100F5000C160204600F034FA2068016921F4904114
:100F600001612068416921F02A0141612068C1685E
:100F700041F40051C160E563202084F8390084F811
:100F80003A00002070BD000030B585B00024009408
:100F900001940294039400681449884224D11448AF
:100FA000816941F480418161816901F4804104914A
:100FB000816941F00401816180690E4D00F00400F7
:100FC00004904FF4007000900220019003200390E1
:100FD00069462846FFF7ACF92815CDE900046946B3
:100FE00028460294FFF7A4F905B030BD003801404F
:100FF0000010024000080140FEE700002DE9F04724
:1010000086B00024304800940194029403948169CE
:1010100041F020018161816901F020010491816921
:1010200041F004018161816901F004010491816949
:1010300041F0080181618069DFF8908000F00800CC
:101040000490002201214046FFF762FADFF8809009
:1010500041F6CF07002239464846FFF759FADFF834
:1010600074A000220B215046FFF752FA01250226F8
:1010700003960095CDE9015469464046FFF758F9BB
:1010800000970396CDE9015469464846FFF750F9A9
:101090000B20CDE90005CDE9024669465046FFF731
:1010A00047F940F60470CDE90004694650460294C1
:1010B000FFF73EF90848416841F0E06141F4004122
:1010C000416006B0BDE8F087001002400014014006
:1010D00000080140000C0140000001400B480A4993
:1010E0004FF4007201604FF4827141600021816011
:1010F000C1600161C0E90512C161016241628162A2
:101100000A21C162FFF736BD003800408C00002084
:1011100010B588B014216846FFF783F80024114801
:1011200005940F490694C0E900144FF6FF71C0E919
:101130000241046144618461FFF7B3FD0720009020
:1011400040200190694604940648FFF7BFFE0594CD
:1011500005A904480694FFF783FD08B010BD000000
:10116000002C0140E4000020FEE77047012000F061
:1011700039FAFBE7012000F035FAFBE710B5502003
:1011800080F31188BFF34F8FBFF36F8F00F084FEA1
:1011900018B104494FF080500860002080F3118896
:1011A00010BD000004ED00E030B58FB02821684686
:1011B000FFF737F814210AA8FFF733F802250120BA
:1011C000049000951020059000240004CDE908400B
:1011D00007956846FFF73EFB0F200A90CDE90B54B8
:1011E0000D9400210AA80E94FFF748FA0FB030BD05
:1011F0000E48016841F00101016041680C4A11404C
:10120000416001680B4A11400160016821F48021AE
:101210000160416821F4FE0141604FF41F018160CB
:101220000021C1620449C0030860704700100240F9
:101230000000FFF8FFFFF6FE08ED00E00148FFF7B1
:1012400089BD0000B8030020F0B502681E4B1F4C9A
:101250001F4D4FF0804E984205D0704503D0A042FC
:1012600001D0A84203D122F070064A683243194ED9
:10127000194FDFF868C098420BD0704509D0A042E2
:1012800007D0A84205D0B04203D0B84201D0604593
:1012900003D122F44074CA6822434C6922F08002D0
:1012A000224302608A68C2620A688262984205D05C
:1012B000B04203D0B84201D0604501D10969016351
:1012C00001214161F0BD0000002C014000040040FC
:1012D0000008004000400140004401400048014037
:1012E00010B5846842EA032224F47F440A4322436F
:1012F000826010BD10B503689A6822F070044A68D5
:10130000224322F007040A6822439A604A6812F0D6
:101310000F0F30D11211082A2DD2DFE802F02C2C49
:101320002C2C0B2127040B69D1E902210068FFF75F
:10133000D7FF20E00A68052A10D00268136A146AF1
:1013400024F00104146202689469096924F0F0042D
:1013500044EA01119161006803620CE0012010BDB4
:101360000A698968006800F008F804E00A69896879
:10137000006800F013F8002010BD10B5036A046A7D
:1013800024F001040462846924F0F00444EA0214A5
:1013900023F00A020A438461026210BD10B5036A99
:1013A00023F0100303628369046A23F4704343EA61
:1013B000023224F0A00343EA01118261016210BDF0
:1013C0002DE9F041044600680169E26821F44051CA
:1013D000114301612169A068E26908436169114311
:1013E00022680843D16849F20C6399430143D160F4
:1013F00020684169A26921F4407111434161E169AA
:1014000064253226B1F5004F3848216804D0814266
:101410003DD1FFF7D1F93CE0814202D1FFF7CCF991
:1014200001E0FFF7B9F900EBC00101EB00116068C2
:101430006FF0180C4000B1FBF0F3B3FBF5F3B1FB18
:10144000F0F7B1FBF0F203FB0CF307EB830306EBC1
:10145000C303B2FBF5F2B3FBF5F3120103F0F8039B
:1014600002EB4302B1FBF0F3B1FBF0F0B0FBF5F09F
:1014700000FB0CF003EB800006EBC000B0FBF5F0C6
:1014800000F00700216810448860BDE8F081FFF794
:1014900083F900EBC00101EB001160686FF01807E1
:1014A0008000B1FBF0F2B2FBF5F2B1FBF0F37A434E
:1014B00003EB8202B1FBF0F306EB0212B2FBF5F292
:1014C000B3FBF5F302F0F00202EB0312B1FBF0F311
:1014D000B1FBF0F0B0FBF5F0784303EB800006EBD6
:1014E0000010B0FBF5F000F00F00CBE70038014032
:1014F000FEE70907090E002804DB00F1E02080F870
:101500000014704700F00F0000F1E02080F8141D77
:10151000704702E008C8121F08C1002AFAD17047BC
:101520007047002001E001C1121F002AFBD1704763
:1015300090B0FFF701F8FFF737FEFFF75FFD0024DB
:1015400021490E941F480F9408600846FEF7AFFE2D
:101550000E9400220EA91C480F94FEF781FE102263
:101560000EA91948FEF77CFEFFF7B8FDFFF7D0FD86
:1015700015481649AC3001604FF41651C0E901140A
:101580000C21C460C0E904418461C461FFF7CAFC56
:101590001C220F496846FEF72BFE0021684600F02A
:1015A0002DF80C4C0A491C2220601C3107A8FEF7BC
:1015B0001FFE002107A800F021F8606000F019F874
:1015C000FEE7000000740040780000200038014071
:1015D000302000080000002001460020842900D0AF
:1015E000C81C704710B500B9012000F017FB00209F
:1015F00010BD10B500F038FB002010BD7FB50D46C2
:1016000004464169B0F9080081B1A16971B1FFF7E1
:10161000E3FFD4E905128DE80700D4E900102B465A
:10162000226900F00EFC039004B070BDFFF7D4FFF8
:1016300003A9CDE90001208A2B4682B2D4E900102B
:1016400000F0D2FB012801D00020EDE70398EBE782
:101650002DE9F041184C0F46054666692068001DCB
:1016600000F016FA38B9206890F82C100120884054
:10167000A1698143A161681C07D137B12168BDE828
:10168000F0410E48091D00F048BA20683544B542C3
:101690004560216805D2A068BDE8F041091D00F051
:1016A00024BA6068091D00F020FA206B854200D240
:1016B0002563BDE8F081000018000020D40400205C
:1016C0002DE9F041054600F035FA2E4C2069401C0A
:1016D000206120682C4F10B1E06940B32DE02560F7
:1016E0002069012829D1002606EB860007EB80003F
:1016F00000F0EDF9761C072EF6D323488C3000F06D
:10170000E6F92148A03000F0E2F91F48B43000F0BB
:10171000DEF91D48C83000F0DAF91B48DC3000F073
:10172000D6F919488C3060601430A06005E020685C
:10173000E96AC06A884200D82560E06A401CE0621D
:10174000E96A0120A26988401043A06101EB810091
:1017500007EB8000291D00F0E0F900F00BFAE069CA
:1017600000280CD02068E96AC06A884207D207497D
:101770004FF080500860BFF34F8FBFF36F8FBDE80D
:10178000F081000018000020F803002004ED00E0C4
:1017900010B5044690F8510058B101280CD0022829
:1017A0000FD0502080F31188BFF34F8FBFF36F8F9E
:1017B000FEE7206B00F0F2F92046BDE8104000F093
:1017C000EDB910BD10484FF44061420706D0C01D6E
:1017D0000D4920F00700411AC1F540610B4A002372
:1017E0000144C2E900030839103A21F007011160F1
:1017F0004B600B600B1AC0E9001393604FF0004080
:101800005360D06070470000E804002064000020AE
:10181000144E154CA6F1C8074FF08058DFF84C90D5
:1018200012E000BF00F086F9F068C568281D00F0DE
:101830002FF92069401E2061E068401EE06000F042
:1018400099F92846FFF7A4FFE0680028EAD1386834
:101850000128F9D9C9F80080BFF34F8FBFF36F8F0C
:10186000F2E70000C00400201800002004ED00E0B2
:101870002DE9F0479A46DDE9098481466FF00303BC
:10188000206B03EB82021044089D20F007067007CE
:1018900007D0502080F31188BFF34F8FBFF36F8FB5
:1018A000FEE723180A5C83F834200A5C12B1401C5E
:1018B0001028F6D3002784F84370072D00D306259F
:1018C000E562C4E91157201D00F00CF904F118007D
:1018D00000F008F92461C5F107006462A061E764C3
:1018E00084F8507052464946304600F0BFF82060F8
:1018F000B8F1000F01D0C8F80040BDE8F087000043
:1019000030B5114900E011460A688242FBD34B68AA
:101910005C18844203D14068184448600846436814
:101920001C18944209D1084C103C2468A24209D0EA
:1019300052681A4442600A6812680260814200D00C
:10194000086030BD0460F9E7640000200648416883
:10195000096829B14168C968C96849680163704765
:101960004FF0FF31FAE700001800002008484068F7
:10197000401C4FF0500080F3118804D0BFF34F8F0C
:10198000BFF36F8FFEE7BFF34F8FBFF36F8FFEE79D
:101990006C0000202DE9F0410546002700F09AF97F
:1019A000314E306808B9FFF70DFFF06805424BD1A2
:1019B000C5B3083568070ED005F00700C0F1080070
:1019C0000544680707D0502080F31188BFF34F8F7C
:1019D000BFF36F8FFEE72DB37068854234D822487D
:1019E000103001460C6801E020460C466168A942AF
:1019F00002D221680029F7D131688C4224D00768CF
:101A00002168016060680837411B10290FD96019EF
:101A1000420708D0502080F31188BFF34F8FBFF3E7
:101A20006F8FFEE710E041606560FFF769FF616856
:101A30007068401A7060B268904200D2B060F0687E
:101A400001430020C4E9000100F090FA780707D0B4
:101A5000502080F31188BFF34F8FBFF36F8FFEE7E5
:101A60003846BDE8F08100005400002010B5031F87
:101A70004FF080741C601B1F21F001011960191FB9
:101A8000024B0B60143940380A6010BD6D19000814
:101A9000D0E9013201699A60D0E901235A604A68AD
:101AA000824201D182684A60002202610868401EB9
:101AB0000860086870470000034B036003F154009E
:101AC000086080201060704764010020704700F1BA
:101AD00008014FF0FF32C0E90112C160016100212D
:101AE0000160704700210161704730B50B685A1CD6
:101AF00002D000F1080202E0026904E022465468C4
:101B000025689D42FAD953684B6099608A6051609C
:101B100008610168491C016030BD42684A609368F1
:101B20008B6093685960916008610168491C01608D
:101B300070470000502080F31188BFF34F8FBFF330
:101B40006F8F0A494868401C486001280CD108483A
:101B5000006810F0FF0F07D0502080F31188BFF30A
:101B60004F8FBFF36F8FFEE7704700006C000020BF
:101B700004ED00E00849486828B1401E486001D1E2
:101B800080F311887047502080F31188BFF34F8F86
:101B9000BFF36F8FFEE700006C00002070B50028D7
:101BA00027D0144DA0F108046168E868014207D10C
:101BB000502080F31188BFF34F8FBFF36F8FFEE784
:101BC00022683AB1502080F31188BFF34F8FBFF3E2
:101BD0006F8FFEE78143616000F07CF860686968A0
:101BE000084468602046FFF78BFEBDE8704000F0B7
:101BF000BDB970BD540000204FF0E020002101610C
:101C0000816105494FF47A720968B1FBF2F1491E0E
:101C100041610721016170471400002010B50200E6
:101C200014D00F48806B38B1502080F31188BFF377
:101C30004F8FBFF36F8FFEE700F04CF80021104686
:101C4000FFF706FD00F092F9002807D105494FF093
:101C500080500860BFF34F8FBFF36F8F10BD00003F
:101C60001800002004ED00E010B586B000240394B5
:101C700005AA04A903A80494FFF71EFFDDE90301E8
:101C80000094CDE9011000230EA11048059A00F040
:101C9000D8F80F490028486311D0502080F31188EC
:101CA000BFF34F8FBFF36F8F4FF0FF3008630120FA
:101CB000C8614C6106B0BDE8104000F041B806B004
:101CC00010BD000049444C450000000011180008F8
:101CD000180000200248816B491C81637047000096
:101CE000180000201448816B11B101214162704736
:101CF000002141628169B1FA81F1C1F11F0101EB5B
:101D000081020E4951F822306BB101EB820101F1E1
:101D100008034A6852684A609A4201D152684A6090
:101D2000D16801607047502080F31188BFF34F8F56
:101D3000BFF36F8FFEE7000018000020F8030020BB
:101D40001CB5264908780190FF20087008788DF8A6
:101D500000009DF800009DF8002000F0F000904287
:101D600007D0502080F31188BFF34F8FBFF36F8FE0
:101D7000FEE79DF800001A4B00F050001870072095
:101D8000986005E09DF8002052008DF80020401E6C
:101D90009DF800201206F5D49860032807D0502043
:101DA00080F31188BFF34F8FBFF36F8FFEE74FF4BF
:101DB00040709860019808700A48016841F4700109
:101DC0000160016841F070410160FFF715FF0020DC
:101DD0005860FEF7C1F900201CBD000000E400E0DF
:101DE0006C00002020ED00E02DE9FF5F8346DDE977
:101DF0000E87994616468A469000FFF7CBFD0500F0
:101E00001CD05420FFF7C6FD040014D00020256329
:101E100084F85100CDE90240CDE900874B463246B7
:101E200051465846FFF724FD2046FFF749FC0120A4
:101E300004B0BDE8F09F2846FFF7B0FE4FF0FF303A
:101E4000F6E7F0B585B0DDE90B640A9DA6B1DCB11B
:101E5000542700972663022684F85160002604AFB9
:101E6000CDE90246CDE90057FFF702FD2046FFF716
:101E700027FC049805B0F0BD502080F31188BFF313
:101E80004F8FBFF36F8FFEE7502080F31188BFF3B1
:101E90004F8FBFF36F8FFEE72DE9F041314C0027E4
:101EA000A06B18B1206A401C206252E06669761C63
:101EB000666113D16068006838B1502080F31188E2
:101EC000BFF34F8FBFF36F8FFEE76068A16861605B
:101ED000A060A06A401CA062FFF738FD206BDFF80D
:101EE0008880864209D36068006890B16068C068E5
:101EF000C568686886420FD220632068C06A00EB1C
:101F0000800158F82100012800D90127206A00B378
:101F100021E04FF0FF30EFE7281DFFF7B9FDA86A79
:101F200018B105F11800FFF7B3FDE86A0121A269B5
:101F300081401143A16100EB800108EB8100291D64
:101F4000FFF7EBFDE86A2168C96A8842CBD3012715
:101F5000C9E7FFF7BBFD606A00B101273846BDE85D
:101F6000F081000018000020F80300202DE9F04760
:101F70002C4D00242746A86B38B1FFF7DBFDA86B7A
:101F8000401EA863A86B40B146E0502080F3118842
:101F9000BFF34F8FBFF36F8FFEE72969224E0120F9
:101FA000D1B3A6F1B40980463068E8B1F068C468DE
:101FB00004F11800FFF76CFD201DFFF769FDE06AD2
:101FC000AA6908FA00F11143A96100EB800109EB4D
:101FD0008100211DFFF7A1FDE06A2968C96A8842D6
:101FE000E2D3C5F82480DFE70CB1FFF7AFFC2C6A21
:101FF00044B14646FFF750FF00B16E62641EF9D14E
:1020000000202862686A38B108490127380708604B
:10201000BFF34F8FBFF36F8FFFF7ACFD3846BDE8BE
:10202000F087000018000020AC04002004ED00E060
:10203000802000086D110008000000000000000072
:102040008000000000000000000000008C2000085C
:102050007511000800000000000000008000000072
:102060000000000000000000000000000000000070
:10207000010203040607080900000000010203042E
:1020800064656661756C745461736B007468726525
:1020900061645F757365725F74617300BC200008D2
:1020A000000000207800000012150008342100080C
:1020B00078000020701400002215000800000000C5
:1020C00000000000010000001000000000000000FF
:1020D0000024F400000000000000000000000000E8
:1020E00000000000000000000000000000000000F0
:1020F00000000000000000000000000000000000E0
:1021000000000000000000000000000000000000CF
:1021100000000000000000000000000000000000BF
:10212000000000000000000000000000AAAAAAAA07
:0421300000000000AB
:0400000508000121CD
:00000001FF
